:020000040000FA
:0600000090EF02F0120077
:020006000000F8
:08000800D9CFE6FFE1CFD9FFDB
:10001000F00E81169316939C939A93988A9C8A9AD1
:100020008A98CFEC00F0300EE66E9CEC01F0E552C1
:10003000050EE66E49EC02F0E552300EE66E9CECE1
:1000400001F0E552010EE66E49EC02F0E552320E87
:10005000E66E9CEC01F0E55270EC02F00009FCE168
:1000600070EC02F00009FCE1FE0EDBCFE6FF9CEC39
:1000700001F0E55270EC02F00009FCE1080EE66EBA
:100080009CEC01F0E55270EC02F00009FCE10F0E6F
:10009000E66E9CEC01F0E55270EC02F00009FCE128
:1000A000010EE66E9CEC01F0E55270EC02F00009E6
:1000B000FCE1040EE66E9CEC01F0E55270EC02F0FF
:1000C0000009FCE1800EE66EFFEC00F0E552E5521F
:0600D000E7CFD9FF12008A
:0A00D600060EF66E000EF76E000E27
:1000E000F86E04010900F550106F0900F550116F0A
:1000F00003E1106701D03DD00900F5500B6F0900F6
:10010000F5500C6F0900F5500D6F09000900F5500E
:10011000E96E0900F550EA6E090009000900F55082
:100120000E6F0900F5500F6F09000900F6CF12F4A9
:10013000F7CF13F4F8CF14F40BC4F6FF0CC4F7FF99
:100140000DC4F8FF04010E5302E10F5307E009004C
:10015000F550EE6E0E07F8E20F07F9D712C4F6FF5E
:1001600013C4F7FF14C4F8FF04011007000E115B5D
:04017000BFD71200E3
:0C0174000000000000000000000000007F
:10018000000000000000000000000000000000006F
:100190001200050EE66E60EC02F0E55212000F0E42
:1001A000E66E60EC02F0E5521200F9DF70EC02F04E
:1001B0000009FCE1280EE66E04EC00F0E552EFDFEA
:1001C00070EC02F00009FCE1E66AFFEC00F0E55299
:1001D000CFEF00F000002BEC02F0E7DFE0DF70EC87
:1001E00002F0000901E0FBD7030EE66E040EE66E96
:0E01F000C2EC01F0E552E552D2DFFFD712005B
:0201FE00D9CF57
:10020000E6FFE1CFD9FFF00E93168116FE0EDB500C
:100210008009E8380F0B0F0B81128A9C8A9ABAEC7E
:1002200000F08A88BAEC00F08A98F00E8116FE0E73
:10023000DB500F0B8112BAEC00F08A88BAEC00F0A8
:0E0240008A980F0E9312E552E7CFD9FF1200F5
:02024E00D9CF06
:10025000E6FFE1CFD9FFF00E93168116FE0EDB50BC
:100260004009E8380F0B0F0B81128A9C8A9ABAEC6E
:1002700000F08A88BAEC00F08A98F00E8116FE0E23
:10028000DB500F0B8112BAEC00F08A88BAEC00F058
:0E0290008A980F0E9312E552E7CFD9FF1200A5
:02029E00D9CFB6
:1002A000E6FFE1CFD9FFFD0EDBCFF6FFFE0EDBCF81
:1002B000F7FF0800F55016E070EC02F00009FCE1D1
:1002C000FD0EDBCFF6FFFE0EDBCFF7FF0800F5508B
:1002D000E66E76EC01F0E552FD0EDB2AFE0EE3E35E
:0C02E000DB2AE1D7E552E7CFD9FF12007E
:0402EC00D9CFE6FF81
:1002F000E1CFD9FFF00E93168116FE0EDB380F0BFF
:100300000F0B81128A8A8A9CBAEC00F08A88BAECB8
:1003100000F08A98F00E8116FE0EDB500F0B811252
:10032000BAEC00F08A88BAEC00F08A980F0E9312AB
:08033000E552E7CFD9FF1200EE
:08033800D9CFE6FFE1CFD9FFA8
:10034000F00E93168116FE0EDB380F0B0F0B811289
:100350008A9C8A9ABAEC00F08A88BAEC00F08A98F3
:10036000F00E8116FE0EDB500F0B8112BAEC00F07E
:100370008A88BAEC00F08A980F0E9312E552E7CF04
:04038000D9FF12008F
:0C038400D9CFE6FFE1CFD9FFFD0EDBCFA3
:10039000E9FFFE0EDBCFEAFFEF5015E070EC02F054
:1003A0000009FCE1FD0EDBCFE9FFFE0EDBCFEAFF2B
:1003B000EF50E66E76EC01F0E552FD0EDB2AFE0E04
:0E03C000E5E3DB2AE3D7E552E7CFD9FF1200D1
:0203CE00D9CF85
:1003D000E6FFE1CFD9FFE6528A8C8A8ABAEC00F0B8
:1003E0008A88BAEC00F08138F00BF00BDF6E8A9847
:1003F000BAEC00F08A88BAEC00F00F0E8114DF121C
:100400008A988A9A8A9CDF50E552E552E7CFD9FF55
:020410001200D8
:0E041200D9CFE6FFE1CFD9FFE6528A8C8A9A55
:10042000BAEC00F08A88BAEC00F08138F00BF00BDF
:10043000DF6E8A98BAEC00F08A88BAEC00F00F0EF2
:100440008114DF128A988A9C7F0EDF14E552E552F0
:06045000E7CFD9FF120006
:0A045600540E826F610E836F6B0E6F
:10046000846F650E856F200E866F320E876F200EAB
:10047000886F000E896F1200070E016444EF02F0CE
:1004800042EF02F0FF0E120004EE82F00151EB5039
:02049000120058
:0E049200FF0EE350036EEF0E01D0F30EE76E87
:1004A000E72E50EF02F00C0E026EE76AE72E56EFD1
:1004B00002F0022E55EF02F0032E4EEF02F0120072
:1004C000FF0EE350036E480E01D04C0EE76EE72E90
:1004D000FED7E76AE72EFED7032EF7D700001200FB
:1004E0008A8C8A9ABAEC00F08A88BAEC00F08A9872
:1004F000BAEC00F08A88BAEC00F08A988A9C000C6A
:10050000000EF36E00EE00F0060E01D81200EA6055
:1005100002D0EE6AFCD7F350E9601200EE6AFCD715
:1005200013EE81F023EE81F0F86A019C6BEC00F091
:0C0530009EEC02F0EAEC00F0FBD7120099
:02053C001200AB
:020000040030CA
:0100010021DD
:010003000EEE
:010006008178
:00000001FF
