:020000040000FA
:06000000E4EF02F0120023
:0A0006000100760000001504000060
:0400100004000000E8
:0C001400D9CFE6FFDACFE6FFE1CFD9FF3D
:10002000E2CFDAFF1BD814E0AEEC02F00009FCE1ED
:1000300015D8E66EA9EC01F0E552D950FB0FE96E38
:10004000FF0EDA20EA6EEE2A000EEE22EE22EAD74A
:10005000E552E5CFDAFFE7CFD9FF1200FB0EDBCF89
:10006000F6FFFC0EDBCFF7FFFD0EDBCFF8FF08003D
:04007000F550120035
:02007400120078
:040076000000000086
:10008000500E8A6F6C0E8B6F750E8C6F730E8D6FAA
:10009000550E8E6F6C0E8F6F740E906F720E916F87
:1000A000610E926F000E936F0A0E15655AEF00F005
:1000B0005FEF00F08A0E1525E96EEF501200FF0E7B
:0200C00012002C
:0E00C200D9CFE6FFDACFE6FFE1CFD9FFE2CFDC
:1000D000DAFF0F0E831695169594959295908C9451
:1000E0008C928C908BEC02F0300E35D8050EE66EBB
:1000F00097EC02F0E552300E2ED8010EE66E97EC2A
:1001000002F0E552320E27D82BD8FEE129D8FEE1C5
:10011000FD0EDBCFE6FFD2EC01F0E55221D8FEE187
:10012000080E19D81DD8FEE10F0E15D819D8FEE11A
:10013000010E11D815D8FEE1040E0DD811D8FEE13C
:10014000800EE66E55EC01F0E552E552E5CFDAFFA0
:10015000E7CFD9FF1200E66ED2EC01F0E5521200B3
:08016000AEEC02F000091200F0
:08016800280EE66E61EC00F0C8
:10017000E55248D8FEE1E66A55EC01F0E55242D876
:10018000FEE1060EE66ED2EC01F0E5523BD8FEE150
:100190000F0EE66ED2EC01F0E55234D8FEE112000B
:1001A00040EC00F0E1DF0A0E040118AF02D0D89055
:1001B00003D0175D000E185913E254EC00F0E66E00
:1001C000010E04011725E96E040E1821EA6EE552AE
:1001D000E750EF6E152B000E1623172B1823E3D7CD
:1001E00011D8FEE1400EE66E55EC01F0E5520AD85A
:1001F000FEE1010EE66E040EE66E4BEC02F0E552F7
:0C020000E552FFD7AEEC02F0000912003E
:04020C00060EF66E76
:10021000000EF76E000EF86E04010900F550106F25
:100220000900F550116F03E1106701D03DD00900BE
:10023000F5500B6F0900F5500C6F0900F5500D6F6C
:1002400009000900F550E96E0900F550EA6E090051
:1002500009000900F5500E6F0900F5500F6F0900F5
:100260000900F6CF12F4F7CF13F4F8CF14F40BC44F
:10027000F6FF0CC4F7FF0DC4F8FF04010E5302E1B2
:100280000F5307E00900F550EE6E0E07F8E20F0776
:10029000F9D712C4F6FF13C4F7FF14C4F8FF040122
:0A02A0001007000E115BBFD712001B
:0602AA00D9CFE6FFDACF18
:1002B000E6FFE1CFD9FFE2CFDAFF0F0E95168316E6
:1002C000FD0EDB508009F00B83128C948C9210D8B9
:1002D0000F0E8316FD0EDB38F00BF00B831208D8DF
:1002E000F00E9512E552E5CFDAFFE7CFD9FF120005
:0E02F00072EC02F08C8072EC02F08C90120026
:0202FE00D9CF56
:10030000E6FFDACFE6FFE1CFD9FFE2CFDAFF0F0E4B
:1003100095168316FD0EDB504009F00B83128C946A
:100320008C9210D80F0E8316FD0EDB38F00BF00BFD
:10033000831208D8F00E9512E552E5CFDAFFE7CF29
:10034000D9FF120072EC02F08C8072EC02F08C90FB
:02035000120099
:0E035200D9CFE6FFDACFE6FFE1CFD9FFE2CF49
:10036000DAFF0F0E95168316FD0EDB50F00B83128D
:100370008C828C9410D80F0E8316FD0EDB38F00B98
:10038000F00B831208D8F00E9512E552E5CFDAFF94
:10039000E7CFD9FF120072EC02F08C8072EC02F011
:0403A0008C9012002B
:0C03A400D9CFE6FFDACFE6FFE1CFD9FFAA
:1003B000E2CFDAFF0F0E95168316FD0EDB50F00B21
:1003C00083128C948C9210D80F0E8316FD0EDB389E
:1003D000F00BF00B831208D8F00E9512E552E5CF22
:1003E000DAFFE7CFD9FF120072EC02F08C8072ECDA
:0603F00002F08C901200E7
:0A03F600D9CFE6FFDACFE6FFE1CF32
:10040000D9FFE2CFDAFFE6528C848C8272EC02F0E4
:100410008C8072EC02F0F00E8314DF6E8C9072EC24
:1004200002F08C8072EC02F083380F0B0F0BDF129E
:100430008C908C928C94DF50E552E552E5CFDAFF38
:06044000E7CFD9FF120016
:0A044600D9CFE6FFDACFE6FFE1CFE1
:10045000D9FFE2CFDAFFE6528C848C9272EC02F084
:100460008C8072EC02F0F00E8314DF6E8C9072ECD4
:1004700002F08C8072EC02F083380F0B0F0BDF124E
:100480008C908C947F0EDF14E552E552E5CFDAFFB5
:06049000E7CFD9FF1200C6
:0A049600D9CFE6FFDACFE6FFE1CF91
:1004A000D9FFE2CFDAFF16D80FE0AEEC02F0000978
:1004B000FCE110D8E66EA9EC01F0E552FC0EDB2A57
:1004C000FD0EF1E3DB2AEFD7E552E5CFDAFFE7CF08
:1004D000D9FF1200FC0EDBCFE9FFFD0EDBCFEAFFF8
:0404E000EF501200C7
:0C04E4000000000000000000000000000C
:1004F00000000000000000000000000000000000FC
:1005000000000000000000000000000000000000EB
:100510000000000012000F0EE66EC4EC02F0E5527F
:0E0520001200050EE66EC4EC02F0E552120069
:02052E00FF0EBE
:10053000E350036EEF0E01D0F30EE76EE72E9EEF51
:1005400002F00C0E026EE76AE72EA4EF02F0022E14
:0C055000A3EF02F0032E9CEF02F012005B
:04055C008C848C926D
:1005600072EC02F08C8072EC02F083AE02D003D801
:10057000010C01D8000C8C9072EC02F08C8072ECB3
:0805800002F08C908C94120033
:08058800FF0EE350036E480E64
:1005900001D04C0EE76EE72EFED7E76AE72EFED7B6
:0805A000032EF7D70000120042
:0805A800000EF36E00EE00F0FE
:1005B000060E01D81200EA6002D0EE6AFCD7F350B2
:0805C000E9601200EE6AFCD7AD
:0805C80013EE81F023EE81F037
:1005D000F86A019C06EC01F03AEC00F0D0EC00F077
:0405E000FBD7120033
:020000040030CA
:0100010022DC
:010003000EEE
:010006008178
:00000001FF
