:020000040000FA
:060000000BEF03F01200FB
:0A00060001004A0600001504000086
:0400100004000000E8
:0C001400020EE66E19EC03F0E55212003B
:100020000F0EE66EEBEC02F0E5521200050EE66EE6
:10003000EBEC02F0E5521200280EE66E61EC00F0E7
:10004000E552B9EC02F00009FCE1E66A8CEC01F043
:10005000E552B9EC02F00009FCE1060EE66E12EC86
:1000600002F0E552B9EC02F00009FCE10F0EE66E79
:1000700012EC02F0E552B9EC02F00009FCE11200CA
:10008000500E8A6F6C0E8B6F750E8C6F730E8D6FAA
:10009000550E8E6F6C0E8F6F740E906F720E916F87
:1000A000610E926F000E936F0A0E15655AEF00F005
:1000B0005FEF00F08A0E1525E96EEF501200FF0E7B
:0200C00012002C
:0E00C200D9CFE6FFDACFE6FFE1CFD9FFE2CFDC
:1000D000DAFF0F0E831695169594959295908C9451
:1000E0008C928C9010EC00F0300EE66E12EC02F068
:1000F000E552050EE66ED4EC02F0E552300EE66EE7
:1001000012EC02F0E552010EE66ED4EC02F0E5527C
:10011000320EE66E12EC02F0E552B9EC02F0000984
:10012000FCE1B9EC02F00009FCE1FD0EDBCFE6FFDB
:1001300012EC02F0E552B9EC02F00009FCE1080E05
:10014000E66E12EC02F0E552B9EC02F00009FCE1B7
:100150000F0EE66E12EC02F0E552B9EC02F0000967
:10016000FCE1010EE66E12EC02F0E552B9EC02F091
:100170000009FCE1040EE66E12EC02F0E552B9EC67
:1001800002F00009FCE1800EE66E8CEC01F0E55215
:0C019000E552E5CFDAFFE7CFD9FF1200FF
:04019C00060EF66EE7
:1001A000000EF76E000EF86E04010900F550106F96
:1001B0000900F550116F03E1106701D03DD009002F
:1001C000F5500B6F0900F5500C6F0900F5500D6FDD
:1001D00009000900F550E96E0900F550EA6E0900C2
:1001E00009000900F5500E6F0900F5500F6F090066
:1001F0000900F6CF12F4F7CF13F4F8CF14F40BC4C0
:10020000F6FF0CC4F7FF0DC4F8FF04010E5302E122
:100210000F5307E00900F550EE6E0E07F8E20F07E6
:10022000F9D712C4F6FF13C4F7FF14C4F8FF040192
:0A0230001007000E115BBFD712008B
:06023A00D9CFE6FFDACF88
:10024000E6FFE1CFD9FFE2CFDAFFFB0EDBCFF6FF0F
:10025000FC0EDBCFF7FFFD0EDBCFF8FF0800F550FB
:100260001EE0B9EC02F00009FCE1FB0EDBCFF6FF6B
:10027000FC0EDBCFF7FFFD0EDBCFF8FF0800F550DB
:10028000E66EE6EC01F0E552D950FB0FE96EFF0E89
:10029000DA20EA6EEE2A000EEE22EE22D6D7E552E2
:0A02A000E5CFDAFFE7CFD9FF120027
:0602AA0040EC00F01CEC2A
:1002B00000F00A0E040118AF02D0D89003D0175DE9
:1002C000000E185913E254EC00F0E66E010E040122
:1002D0001725E96E040E1821EA6EE552E750EF6E1D
:1002E000152B000E1623172B1823E3D7B9EC02F0B9
:1002F0000009FCE1400EE66E8CEC01F0E552B9EC31
:1003000002F00009FCE1010EE66E040EE66E3EEC22
:0803100002F0E552E552FFD7AF
:08031800D9CFE6FFDACFE6FFC2
:10032000E1CFD9FFE2CFDAFF0F0E95168316FD0E4F
:10033000DB508009F00B83128C948C920AEC00F055
:100340008C800AEC00F08C900F0E8316FD0EDB38CB
:10035000F00BF00B83120AEC00F08C800AEC00F03A
:100360008C90F00E9512E552E5CFDAFFE7CFD9FF7A
:02037000120079
:0E037200D9CFE6FFDACFE6FFE1CFD9FFE2CF29
:10038000DAFF0F0E95168316FD0EDB504009F00BB9
:1003900083128C948C920AEC00F08C800AEC00F0B2
:1003A0008C900F0E8316FD0EDB38F00BF00B8312D2
:1003B0000AEC00F08C800AEC00F08C90F00E9512A4
:0C03C000E552E5CFDAFFE7CFD9FF1200CD
:0403CC00D9CFE6FFA0
:1003D000DACFE6FFE1CFD9FFE2CFDAFF0F0E9516B5
:1003E0008316FD0EDB50F00B83128C828C940AEC8A
:1003F00000F08C800AEC00F08C900F0E8316FD0E3E
:10040000DB38F00BF00B83120AEC00F08C800AEC66
:1004100000F08C90F00E9512E552E5CFDAFFE7CFB1
:04042000D9FF1200EE
:0C042400D9CFE6FFDACFE6FFE1CFD9FF29
:10043000E2CFDAFF0F0E95168316FD0EDB50F00BA0
:1004400083128C948C920AEC00F08C800AEC00F001
:100450008C900F0E8316FD0EDB38F00BF00B831221
:100460000AEC00F08C800AEC00F08C90F00E9512F3
:0C047000E552E5CFDAFFE7CFD9FF12001C
:04047C00D9CFE6FFEF
:10048000DACFE6FFE1CFD9FFE2CFDAFFFC0EDBCF18
:10049000E9FFFD0EDBCFEAFFEF5015E0B9EC02F00B
:1004A0000009FCE1FC0EDBCFE9FFFD0EDBCFEAFF2C
:1004B000EF50E66EE6EC01F0E552FC0EDB2AFD0E95
:1004C000E5E3DB2AE3D7E552E5CFDAFFE7CFD9FF53
:0204D000120018
:0E04D200D9CFE6FFDACFE6FFE1CFD9FFE2CFC8
:1004E000DAFFE6528C848C820AEC00F08C800AECF5
:1004F00000F0F00E8314DF6E8C900AEC00F08C801C
:100500000AEC00F083380F0B0F0BDF128C908C92EB
:100510008C94DF50E552E552E5CFDAFFE7CFD9FF03
:020520001200C7
:0E052200D9CFE6FFDACFE6FFE1CFD9FFE2CF77
:10053000DAFFE6528C848C920AEC00F08C800AEC94
:1005400000F0F00E8314DF6E8C900AEC00F08C80CB
:100550000AEC00F083380F0B0F0BDF128C908C9499
:100560007F0EDF14E552E552E5CFDAFFE7CFD9FF82
:02057000120077
:0E0572008C848C920AEC00F08C800AEC00F075
:1005800083AE09D08C900AEC00F08C800AEC00F06D
:100590008C908C94010C8C900AEC00F08C800AEC0E
:0805A00000F08C908C94000C1B
:0805A800FF0EE350036EEF0E9D
:1005B00001D0F30EE76EE72EDBEF02F00C0E026EB9
:1005C000E76AE72EE1EF02F0022EE0EF02F0032EE1
:0605D000D9EF02F0120059
:0A05D600FF0EE350036E480E01D043
:1005E0004C0EE76EE72EFED7E76AE72EFED7032E06
:0605F000F7D70000120025
:0A05F600000EF36E00EE00F0060E9A
:1006000001D81200EA6002D0EE6AFCD7F350E9602C
:060610001200EE6AFCD7A7
:0A06160013EE81F023EE81F0F86A84
:10062000019CCEEC00F024EC03F055EC01F0FBD77C
:020630001200B6
:0E063200FF0EE350E84E1200000000D000D092
:0806400000D0E82EFAD71200E9
:0206480012009E
:04064A0000000000AC
:020000040030CA
:0100010022DC
:010003000EEE
:010006008178
:00000001FF
