:020000040000FA
:0600000040EF02F01200C7
:0A00060001006C000000150400006A
:0400100004000000E8
:0C001400D9CFE6FFDACFE6FFE1CFD9FF3D
:10002000E2CFDAFFF00E93168116FD0EDB50800949
:10003000E8380F0B0F0B81128A9C8A9A0FD8F00EAA
:100040008116FD0EDB500F0B811208D80F0E931294
:10005000E552E5CFDAFFE7CFD9FF1200CEEC01F091
:0A0060008A88CEEC01F08A981200A5
:02006A00120082
:04006C000000000090
:10008000500E8A6F6C0E8B6F750E8C6F730E8D6FAA
:10009000550E8E6F6C0E8F6F740E906F720E916F87
:1000A000610E926F000E936F0A0E15655AEF00F005
:1000B0005FEF00F08A0E1525E96EEF501200FF0E7B
:0200C00012002C
:0E00C200D9CFE6FFDACFE6FFE1CFD9FFE2CFDC
:1000D000DAFFF00E81169316939C939A93988A9C5C
:1000E0008A9A8A98E7EC01F0300E35D8050EE66E54
:1000F000F3EC01F0E552300E2ED8010EE66EF3EC73
:1001000001F0E552320E27D82BD8FEE129D8FEE1C6
:10011000FD0EDBCFE6FF7EEC01F0E55221D8FEE1DB
:10012000080E19D81DD8FEE10F0E15D819D8FEE11A
:10013000010E11D815D8FEE1040E0DD811D8FEE13C
:10014000800EE66E0AEC00F0E552E552E5CFDAFFEC
:10015000E7CFD9FF1200E66E7EEC01F0E552120007
:080160000AEC02F00009120094
:08016800280EE66E61EC00F0C8
:10017000E55248D8FEE1E66A0AEC00F0E55242D8C2
:10018000FEE1060EE66E7EEC01F0E5523BD8FEE1A4
:100190000F0EE66E7EEC01F0E55234D8FEE112005F
:1001A00040EC00F0E1DF0A0E040118AF02D0D89055
:1001B00003D0175D000E185913E254EC00F0E66E00
:1001C000010E04011725E96E040E1821EA6EE552AE
:1001D000E750EF6E152B000E1623172B1823E3D7CD
:1001E00011D8FEE1400EE66E0AEC00F0E5520AD8A6
:1001F000FEE1010EE66E040EE66EA7EC01F0E5529C
:0C020000E552FFD70AEC02F000091200E2
:04020C00060EF66E76
:10021000000EF76E000EF86E04010900F550106F25
:100220000900F550116F03E1106701D03DD00900BE
:10023000F5500B6F0900F5500C6F0900F5500D6F6C
:1002400009000900F550E96E0900F550EA6E090051
:1002500009000900F5500E6F0900F5500F6F0900F5
:100260000900F6CF12F4F7CF13F4F8CF14F40BC44F
:10027000F6FF0CC4F7FF0DC4F8FF04010E5302E1B2
:100280000F5307E00900F550EE6E0E07F8E20F0776
:10029000F9D712C4F6FF13C4F7FF14C4F8FF040122
:0A02A0001007000E115BBFD712001B
:0602AA00D9CFE6FFDACF18
:1002B000E6FFE1CFD9FFE2CFDAFFF00E9316811609
:1002C000FD0EDB380F0B0F0B81128A8A8A9C0FD828
:1002D000F00E8116FD0EDB500F0B811208D80F0EA9
:1002E0009312E552E5CFDAFFE7CFD9FF1200CEEC4B
:0C02F00001F08A88CEEC01F08A98120020
:0402FC00D9CFE6FF71
:10030000DACFE6FFE1CFD9FFE2CFDAFFF00E9316A6
:100310008116FD0EDB380F0B0F0B81128A9C8A9A17
:100320000FD8F00E8116FD0EDB500F0B811208D88E
:100330000F0E9312E552E5CFDAFFE7CFD9FF120097
:0E034000CEEC01F08A88CEEC01F08A98120013
:02034E00D9CF05
:10035000E6FFDACFE6FFE1CFD9FFE2CFDAFF16D82A
:100360000FE00AEC02F00009FCE110D8E66E55EC53
:1003700001F0E552FC0EDB2AFD0EF1E3DB2AEFD79C
:10038000E552E5CFDAFFE7CFD9FF1200FC0EDBCF55
:0C039000E9FFFD0EDBCFEAFFEF5012008A
:04039C00000000005D
:1003A000000000000000000000000000000000004D
:1003B000000000000000000000000000000000003D
:1003C00000000000000000000000000012000F0EFE
:1003D000E66E20EC02F0E5521200050EE66E20EC0F
:0603E00002F0E5521200DC
:0A03E600FF0EE350036EEF0E01D08E
:1003F000F30EE76EE72EFAEF01F00C0E026EE76ADD
:10040000E72E00EF02F0022EFFEF01F0032EF8EFCF
:0404100001F01200E5
:0C0414008A8C8A9ACEEC01F08A88CEEC2B
:1004200001F081A602D003D8010C01D8000C8A98F3
:10043000CEEC01F08A88CEEC01F08A988A9C1200FA
:10044000FF0EE350036E480E01D04C0EE76EE72E10
:10045000FED7E76AE72EFED7032EF7D7000012007B
:10046000000EF36E00EE00F0060E01D81200EA60F6
:1004700002D0EE6AFCD7F350E9601200EE6AFCD7B6
:1004800013EE81F023EE81F0F86A019C06EC01F096
:0C04900035EC00F0D0EC00F0FBD71200BF
:020000040030CA
:0100010022DC
:010003000EEE
:010006008178
:00000001FF
