:020000040000FA
:06000000CAEF02F012003D
:0A0006000100C8050000940000008E
:0400100004000000E8
:0C001400020EE66ED8EC02F0E55212007D
:100020000F0EE66EAAEC02F0E5521200050EE66E27
:10003000AAEC02F0E5521200280EE66E61EC00F028
:10004000E55278EC02F00009FCE1E66A4EEC01F0C2
:10005000E55278EC02F00009FCE1060EE66EE9ECF0
:1000600001F0E55278EC02F00009FCE10F0EE66EBB
:10007000E9EC01F0E55278EC02F00009FCE1120035
:10008000500E8A6F6C0E8B6F750E8C6F730E8D6FAA
:10009000550E8E6F6C0E8F6F740E906F720E916F87
:1000A000610E926F000E936F0A0E94655AEF00F086
:1000B0005FEF00F08A0E9425E96EEF501200FF0EFC
:0200C00012002C
:0E00C200D9CFE6FFE1CFD9FF0F0E83169516BA
:1000D0009594959295908C948C928C9010EC00F065
:1000E000300EE66EE9EC01F0E552050EE66E93EC9B
:1000F00002F0E552300EE66EE9EC01F0E552010E39
:10010000E66E93EC02F0E552320EE66EE9EC01F099
:10011000E55278EC02F00009FCE178EC02F000090D
:10012000FCE1FE0EDBCFE6FFE9EC01F0E55278ECF6
:1001300002F00009FCE1080EE66EE9EC01F0E55280
:1001400078EC02F00009FCE10F0EE66EE9EC01F03C
:10015000E55278EC02F00009FCE1010EE66EE9ECF4
:1001600001F0E55278EC02F00009FCE1040EE66EC5
:10017000E9EC01F0E55278EC02F00009FCE1800EB8
:10018000E66E4EEC01F0E552E552E7CFD9FF1200E2
:10019000060EF66E000EF76E000EF86E00010900F6
:1001A000F5508F6F0900F550906F03E18F6701D014
:1001B0003DD00900F5508A6F0900F5508B6F09009A
:1001C000F5508C6F09000900F550E96E0900F550F3
:1001D000EA6E090009000900F5508D6F0900F5501D
:1001E0008E6F09000900F6CF91F0F7CF92F0F8CFAB
:1001F00093F08AC0F6FF8BC0F7FF8CC0F8FF0001B8
:100200008D5302E18E5307E00900F550EE6E8D0725
:10021000F8E28E07F9D791C0F6FF92C0F7FF93C0BE
:0E022000F8FF00018F07000E905BBFD71200A1
:02022E0040ECA2
:1002300000F01CEC00F00A0E000197AF02D0D8903D
:1002400003D0965D000E975913E254EC00F0E66E71
:10025000800E00019625E96E000E9721EA6EE552A8
:10026000E750EF6E942B000E9523962B9723E3D740
:1002700078EC02F00009FCE1400EE66E4EEC01F075
:10028000E55278EC02F00009FCE1800EE66E000E0B
:0C029000E66E0FEC02F0E552E552FFD7DD
:04029C00D9CFE6FFD1
:1002A000E1CFD9FF0F0E95168316FE0EDB508009A5
:1002B000F00B83128C948C920AEC00F08C800AEC88
:1002C00000F08C900F0E8316FE0EDB38F00BF00B57
:1002D00083120AEC00F08C800AEC00F08C90F00E97
:0A02E0009512E552E7CFD9FF120096
:0602EA00D9CFE6FFE1CFD1
:1002F000D9FF0F0E95168316FE0EDB504009F00B4A
:1003000083128C948C920AEC00F08C800AEC00F042
:100310008C900F0E8316FE0EDB38F00BF00B831261
:100320000AEC00F08C800AEC00F08C90F00E951234
:08033000E552E7CFD9FF1200EE
:08033800D9CFE6FFE1CFD9FFA8
:10034000FD0EDBCFF6FFFE0EDBCFF7FF0800F5500A
:1003500016E078EC02F00009FCE1FD0EDBCFF6FFC1
:10036000FE0EDBCFF7FF0800F550E66EC3EC01F0A0
:10037000E552FD0EDB2AFE0EE3E3DB2AE1D7E55270
:06038000E7CFD9FF1200D7
:0A038600D9CFE6FFE1CFD9FF0F0E3B
:1003900095168316FE0EDB50F00B83128C828C9424
:1003A0000AEC00F08C800AEC00F08C900F0E8316A3
:1003B000FE0EDB38F00BF00B83120AEC00F08C80A1
:1003C0000AEC00F08C90F00E9512E552E7CFD9FFC1
:0203D000120019
:0E03D200D9CFE6FFE1CFD9FF0F0E95168316A7
:1003E000FE0EDB50F00B83128C948C920AEC00F022
:1003F0008C800AEC00F08C900F0E8316FE0EDB381A
:10040000F00BF00B83120AEC00F08C800AEC00F089
:0E0410008C90F00E9512E552E7CFD9FF120046
:02041E00D9CF34
:10042000E6FFE1CFD9FFFD0EDBCFE9FFFE0EDBCF0C
:10043000EAFFEF5015E078EC02F00009FCE1FD0E58
:10044000DBCFE9FFFE0EDBCFEAFFEF50E66EC3EC39
:1004500001F0E552FD0EDB2AFE0EE5E3DB2AE3D7D1
:08046000E552E7CFD9FF1200BD
:08046800D9CFE6FFE1CFD9FF77
:10047000E6528C848C820AEC00F08C800AEC00F04E
:10048000F00E8314DF6E8C900AEC00F08C800AEC86
:1004900000F083380F0B0F0BDF128C908C928C9432
:0C04A000DF50E552E552E7CFD9FF120013
:0404AC00D9CFE6FFBF
:1004B000E1CFD9FFE6528C848C920AEC00F08C805C
:1004C0000AEC00F0F00E8314DF6E8C900AEC00F062
:1004D0008C800AEC00F083380F0B0F0BDF128C902E
:1004E0008C947F0EDF14E552E552E7CFD9FF12005E
:1004F0008C848C920AEC00F08C800AEC00F083AEC5
:1005000009D08C900AEC00F08C800AEC00F08C9002
:100510008C94010C8C900AEC00F08C800AEC00F0BA
:060520008C908C94000C8D
:0A052600FF0EE350036EEF0E01D04C
:10053000F30EE76EE72E9AEF02F00C0E026EE76AFA
:10054000E72EA0EF02F0022E9FEF02F0032E98EFAD
:0405500002F01200A3
:0C055400FF0EE350036E480E01D04C0E69
:10056000E76EE72EFED7E76AE72EFED7032EF7D712
:040570000000120075
:0C057400000EF36E00EE00F0060E01D841
:100580001200EA6002D0EE6AFCD7F350E960120074
:04059000EE6AFCD73C
:0C05940014EE00F024EE00F0F86A019C68
:1005A000C8EC00F0E3EC02F017EC01F0FBD712000E
:1005B000FF0EE350E84E1200000000D000D000D043
:0605C000E82EFAD712003C
:0205C600120021
:0405C800000000002F
:020000040030CA
:0100010022DC
:010003000EEE
:010006008178
:00000001FF
