:020000040000FA
:060000001CEF03F01200EA
:0A0006000100720000001504000064
:0400100004000000E8
:0C001400D9CFE6FFDACFE6FFE1CFD9FF3D
:10002000E2CFDAFFF00E93168116FD0EDB50800949
:10003000E8380F0B0F0B81128A9C8A9AB0EC02F001
:100040008A88B0EC02F08A98F00E8116FD0EDB5023
:100050000F0B8112B0EC02F08A88B0EC02F08A98A3
:100060000F0E9312E552E5CFDAFFE7CFD9FF12006A
:0200700012007C
:04007200000000008A
:10008000500E8A6F6C0E8B6F750E8C6F730E8D6FAA
:10009000550E8E6F6C0E8F6F740E906F720E916F87
:1000A000610E926F000E936F0A0E15655AEF00F005
:1000B0005FEF00F08A0E1525E96EEF501200FF0E7B
:0200C00012002C
:0E00C200D9CFE6FFDACFE6FFE1CFD9FFE2CFDC
:1000D000DAFFF00E81169316939C939A93988A9C5C
:1000E0008A9A8A98C3EC02F0300EE66E09EC02F0B0
:1000F000E552050EE66ECFEC02F0E552300EE66EEC
:1001000009EC02F0E552010EE66ECFEC02F0E5528A
:10011000320EE66E09EC02F0E552E6EC02F0000960
:10012000FCE1E6EC02F00009FCE1FD0EDBCFE6FFAE
:1001300009EC02F0E552E6EC02F00009FCE1080EE1
:10014000E66E09EC02F0E552E6EC02F00009FCE193
:100150000F0EE66E09EC02F0E552E6EC02F0000943
:10016000FCE1010EE66E09EC02F0E552E6EC02F06D
:100170000009FCE1040EE66E09EC02F0E552E6EC43
:1001800002F00009FCE1800EE66E0AEC00F0E55298
:0C019000E552E5CFDAFFE7CFD9FF1200FF
:04019C00280EE66ED5
:1001A00061EC00F0E552E6EC02F00009FCE1E66AE1
:1001B0000AEC00F0E552E6EC02F00009FCE1060E64
:1001C000E66E09EC02F0E552E6EC02F00009FCE113
:1001D0000F0EE66E09EC02F0E552E6EC02F00009C3
:1001E000FCE1120040EC00F0D9DF0A0E040118AF68
:1001F00002D0D89003D0175D000E185913E254ECCA
:1002000000F0E66E010E04011725E96E040E1821B8
:10021000EA6EE552E750EF6E152B000E1623172BF2
:100220001823E3D7E6EC02F00009FCE1400EE66E8D
:100230000AEC00F0E552E6EC02F00009FCE1010EE8
:10024000E66E040EE66E35EC02F0E552E552FFD79D
:10025000060EF66E000EF76E000EF86E0401090031
:10026000F550106F0900F550116F03E1106701D0D0
:100270003DD00900F5500B6F0900F5500C6F0900D7
:10028000F5500D6F09000900F550E96E0900F550B1
:10029000EA6E090009000900F5500E6F0900F550DB
:1002A0000F6F09000900F6CF12F4F7CF13F4F8CF5F
:1002B00014F40BC4F6FF0CC4F7FF0DC4F8FF0401DF
:1002C0000E5302E10F5307E00900F550EE6E0E07E2
:1002D000F8E20F07F9D712C4F6FF13C4F7FF14C4EE
:0E02E000F8FF04011007000E115BBFD71200DB
:0202EE00D9CF66
:1002F000E6FFDACFE6FFE1CFD9FFE2CFDAFFFB0E70
:10030000DBCFF6FFFC0EDBCFF7FFFD0EDBCFF8FFF8
:100310000800F5501EE0E6EC02F00009FCE1FB0EDF
:10032000DBCFF6FFFC0EDBCFF7FFFD0EDBCFF8FFD8
:100330000800F550E66EDDEC01F0E552D950FB0FF8
:10034000E96EFF0EDA20EA6EEE2A000EEE22EE22B1
:0E035000D6D7E552E5CFDAFFE7CFD9FF12008E
:02035E00D9CFF5
:10036000E6FFDACFE6FFE1CFD9FFE2CFDAFFF00E0A
:1003700093168116FD0EDB504009E8380F0B0F0B6A
:1003800081128A9C8A9AB0EC02F08A88B0EC02F062
:100390008A98F00E8116FD0EDB500F0B8112B0EC27
:1003A00002F08A88B0EC02F08A980F0E9312E552A0
:0A03B000E5CFDAFFE7CFD9FF120016
:0603BA00D9CFE6FFDACF07
:1003C000E6FFE1CFD9FFE2CFDAFFF00E93168116F8
:1003D000FD0EDB380F0B0F0B81128A8A8A9CB0EC62
:1003E00002F08A88B0EC02F08A98F00E8116FD0EB9
:1003F000DB500F0B8112B0EC02F08A88B0EC02F0F7
:100400008A980F0E9312E552E5CFDAFFE7CFD9FFB6
:020410001200D8
:0E041200D9CFE6FFDACFE6FFE1CFD9FFE2CF88
:10042000DAFFF00E93168116FD0EDB380F0B0F0B63
:1004300081128A9C8A9AB0EC02F08A88B0EC02F0B1
:100440008A98F00E8116FD0EDB500F0B8112B0EC76
:1004500002F08A88B0EC02F08A980F0E9312E552EF
:0A046000E5CFDAFFE7CFD9FF120065
:06046A00D9CFE6FFDACF56
:10047000E6FFE1CFD9FFE2CFDAFFFC0EDBCFE9FFE9
:10048000FD0EDBCFEAFFEF5015E0E6EC02F00009CD
:10049000FCE1FC0EDBCFE9FFFD0EDBCFEAFFEF5006
:1004A000E66EDDEC01F0E552FC0EDB2AFD0EE5E325
:1004B000DB2AE3D7E552E5CFDAFFE7CFD9FF120019
:1004C000D9CFE6FFDACFE6FFE1CFD9FFE2CFDAFFFF
:1004D000E6528A8C8A8AB0EC02F08A88B0EC02F08C
:1004E0008138F00BF00BDF6E8A98B0EC02F08A884E
:1004F000B0EC02F00F0E8114DF128A988A9A8A9C5F
:10050000DF50E552E552E5CFDAFFE7CFD9FF120021
:10051000D9CFE6FFDACFE6FFE1CFD9FFE2CFDAFFAE
:10052000E6528A8C8A9AB0EC02F08A88B0EC02F02B
:100530008138F00BF00BDF6E8A98B0EC02F08A88FD
:10054000B0EC02F00F0E8114DF128A988A9C7F0EA5
:10055000DF14E552E552E5CFDAFFE7CFD9FF12000D
:10056000000000000000000000000000000000008B
:10057000000000000000000000000000000000007B
:100580000000000012000F0EE66EFCEC02F0E552D7
:0E0590001200050EE66EFCEC02F0E5521200C1
:02059E00FF0E4E
:1005A000E350036EEF0E01D0F30EE76EE72ED6EFA9
:1005B00002F00C0E026EE76AE72EDCEF02F0022E6C
:0C05C000DBEF02F0032ED4EF02F012007B
:0405CC008A8C8A9AF1
:1005D000B0EC02F08A88B0EC02F081A602D003D819
:1005E000010C01D8000C8A98B0EC02F08A88B0ECBB
:0805F00002F08A988A9C1200B7
:0805F800FF0EE350036E480EF4
:1006000001D04C0EE76EE72EFED7E76AE72EFED745
:08061000032EF7D700001200D1
:08061800000EF36E00EE00F08D
:10062000060E01D81200EA6002D0EE6AFCD7F35041
:08063000E9601200EE6AFCD73C
:0806380013EE81F023EE81F0C6
:10064000F86A019C28EC01F038EC00F0F2EC00F0C4
:04065000FBD71200C2
:0C065400FF0EE350036E1B0E00D001D01F
:10066000200EE76EE72EFED7032EFAD700D0120039
:10067000FF0EE350E84E1200000000D000D000D082
:06068000E82EFAD712007B
:020000040030CA
:0100010022DC
:010003000EEE
:010006008178
:00000001FF
