:020000040000FA
:06000000E3EF01F0120025
:020006000000F8
:08000800D9CFE6FFDACFE6FFD5
:10001000E1CFD9FFE2CFDAFFF00E81169316939C61
:10002000939A93988A9C8A9A8A98B9EC00F0300E39
:1000300035D8050EE66E96EC01F0E552300E2ED85E
:10004000010EE66E96EC01F0E552320E27D82BD861
:10005000FEE129D8FEE1FD0EDBCFE6FF6DEC01F0FD
:10006000E55221D8FEE1080E19D81DD8FEE10F0E89
:1000700015D819D8FEE1010E11D815D8FEE1040EED
:100080000DD811D8FEE1800EE66E19EC01F0E552B4
:10009000E552E5CFDAFFE7CFD9FF1200E66E6DEC4F
:0E00A00001F0E5521200ADEC01F00009120073
:0200AE00060E3C
:1000B000F66E000EF76E000EF86E04010900F550A2
:1000C000066F0900F550076F03E1066701D03DD0C8
:1000D0000900F550016F0900F550026F0900F55055
:1000E000036F09000900F550E96E0900F550EA6E4A
:1000F000090009000900F550046F0900F550056F6B
:1001000009000900F6CF08F4F7CF09F4F8CF0AF494
:1001100001C4F6FF02C4F7FF03C4F8FF040104534F
:1001200002E1055307E00900F550EE6E0407F8E21E
:100130000507F9D708C4F6FF09C4F7FF0AC4F8FF9A
:0C01400004010607000E075BBFD7120089
:04014C0000000000AF
:10015000000000000000000000000000000000009F
:10016000000000000000000000000000000000008F
:1001700012000F0EE66EC3EC01F0E5521200050E00
:10018000E66EC3EC01F0E5521200200EE66E04ECC0
:1001900000F0E552ADEC01F00009FCE1230EE66E43
:1001A00019EC01F0E552ADEC01F00009FCE1070E9D
:1001B000E66E6DEC01F0E5521200E7DFADEC01F008
:1001C0000009FCE1E20EE66E030EE66EE9EC00F0DB
:0201D000FFD757
:0E01D200D9CFE6FFDACFE6FFE1CFD9FFE2CFCB
:1001E000DAFF1BD814E0ADEC01F00009FCE115D8F2
:1001F000E66E44EC01F0E552D950FB0FE96EFF0EBC
:10020000DA20EA6EEE2A000EEE22EE22EAD7E5525E
:10021000E5CFDAFFE7CFD9FF1200FB0EDBCFF6FF09
:10022000FC0EDBCFF7FFFD0EDBCFF8FF0800F5502B
:020230001200BA
:0E023200D9CFE6FFDACFE6FFE1CFD9FFE2CF6A
:10024000DAFFF00E93168116FD0EDB508009E838B8
:100250000F0B0F0B81128A9C8A9A0FD8F00E811611
:10026000FD0EDB500F0B811208D80F0E9312E552D2
:10027000E5CFDAFFE7CFD9FF1200A6EC00F08A88BD
:08028000A6EC00F08A981200C0
:08028800D9CFE6FFDACFE6FF53
:10029000E1CFD9FFE2CFDAFFF00E93168116FD0E03
:1002A000DB380F0B0F0B81128A8A8A9C0FD8F00E55
:1002B0008116FD0EDB500F0B811208D80F0E931222
:1002C000E552E5CFDAFFE7CFD9FF1200A6EC00F048
:0A02D0008A88A6EC00F08A9812005C
:0602DA00D9CFE6FFDACFE8
:1002E000E6FFE1CFD9FFE2CFDAFFF00E93168116D9
:1002F000FD0EDB380F0B0F0B81128A9C8A9A0FD8E8
:10030000F00E8116FD0EDB500F0B811208D80F0E78
:100310009312E552E5CFDAFFE7CFD9FF1200A6EC42
:0C03200000F08A88A6EC00F08A98120019
:04032C00FF0EE3508D
:10033000036EEF0E01D0F30EE76EE72E9DEF01F096
:100340000C0E026EE76AE72EA3EF01F0022EA2EF79
:0A03500001F0032E9BEF01F01200F4
:06035A008A8C8A9AA6ECD1
:1003600000F08A88A6EC00F081A602D003D8010C28
:1003700001D8000C8A98A6EC00F08A88A6EC00F060
:060380008A988A9C12001D
:0A038600FF0EE350036E480E01D095
:100390004C0EE76EE72EFED7E76AE72EFED7032E58
:0603A000F7D70000120077
:0A03A600000EF36E00EE00F0060EEC
:1003B00001D81200EA6002D0EE6AFCD7F350E9607F
:0603C0001200EE6AFCD7FA
:0A03C60013EE81F023EE81F0F86AD7
:1003D000019C57EC00F0F8EC01F0DDEC00F0FBD7ED
:0203E000120009
:0D03E20048454C4C4F20574F524C442100D1
:0203F0001200F9
:020000040030CA
:0100010022DC
:010003000EEE
:010006008178
:00000001FF
