:020000040000FA
:0600000000F0BCEF04F06B
:0F0600000048454C4C4F20574F524C44210000AE
:10061000FFFF036E0F0E83160F0E9516959495929D
:1006200095908C948C928C90B1EC04F0300E60EC30
:1006300004F0310E026EBB0EFFFFE82EFDD7022E36
:10064000FBD7300E60EC04F00A0E026EBE0EFFFF08
:10065000E82EFDD7022EFBD700D0320E60EC04F05E
:10066000FFFFCEEC03F00009D8A439EF03F03CEF14
:1006700003F0FFFF30EF03F0FFFFFFFFCEEC03F0CE
:100680000009D8A446EF03F049EF03F0FFFF3DEF68
:1006900003F0FFFF035060EC04F0FFFFCEEC03F02B
:1006A0000009D8A456EF03F059EF03F0FFFF4DEF18
:1006B00003F0FFFF080E60EC04F0FFFFCEEC03F048
:1006C0000009D8A466EF03F069EF03F0FFFF5DEFC8
:1006D00003F0FFFF0F0E60EC04F0FFFFCEEC03F021
:1006E0000009D8A476EF03F079EF03F0FFFF6DEF78
:1006F00003F0FFFF010E60EC04F0FFFFCEEC03F00F
:100700000009D8A486EF03F089EF03F0FFFF7DEF27
:1007100003F0FFFF040E60EC04F0FFFFCEEC03F0EB
:100720000009D8A496EF03F099EF03F0FFFF8DEFD7
:1007300003F0FFFF800E1DEC04F01200FFFFFFFF2F
:10074000BAEF03F0FFFFCEEC03F00009D8A4ABEF43
:1007500003F0AEEF03F0FFFFA2EF03F0FFFF02C0D4
:10076000F6FF03C0F7FF0800FFFFF5503FEC04F071
:10077000024A032AFFFF02C0F6FF03C0F7FF08008A
:10078000FFFFF5500009D8A4C8EF03F0CBEF03F04A
:10079000FFFFA2EF03F0FFFF1200FFFFFFFF8C84BB
:1007A0008C929CEC04F08C809CEC04F083AEDBEF2C
:1007B00003F0DEEF03F0FFFFEAEF03F0FFFF8C90A2
:1007C0009CEC04F08C809CEC04F08C908C94010EDA
:1007D000F4EF03F0FFFF8C909CEC04F08C809CEC19
:1007E00004F08C908C94000EFFFF1200FFFFFFFFBF
:1007F000200E08EC03F0FFFFCEEC03F00009D8A4B4
:1008000004EF04F007EF04F0FFFFFBEF03F0FFFF3E
:10081000230E1DEC04F0FFFFCEEC03F00009D8A47A
:1008200014EF04F017EF04F0FFFF0BEF04F0FFFFED
:10083000070E60EC04F01200FFFFFFFF016E0F0EC9
:1008400095160F0E831601508009F00B83128C94BD
:100850008C929CEC04F08C809CEC04F08C900F0E3D
:1008600083160138F00BF00B83129CEC04F08C80A3
:100870009CEC04F08C90F00E95121200FFFFFFFF2D
:10088000016E0F0E95160F0E83160150F00B83129A
:100890008C828C949CEC04F08C809CEC04F08C900A
:1008A0000F0E83160138F00BF00B83129CEC04F052
:1008B0008C809CEC04F08C90F00E95121200FFFFDF
:1008C000FFFF016E0F0E95160F0E83160150F00BF1
:1008D00083128C948C929CEC04F08C809CEC04F041
:1008E0008C900F0E83160138F00BF00B83129CECEA
:1008F00004F08C809CEC04F08C90F00E95121200A9
:10090000FFFFFFFFF7EC03F0FFFFCEEC03F0000961
:10091000D8A48DEF04F090EF04F0FFFF84EF04F013
:10092000FFFF010E026E060E036E9FEC03F0FFFF49
:1009300097EF04F001EF00F0FFFF00F000F000F08F
:1009400000F000F000F000F000F000F000F000F027
:1009500000F000F000F000F000F000F000F01200F5
:10096000FFFFFFFF0F0E016E9E0EFFFFE82EFDD76B
:10097000012EFBD71200FFFF000EF86E060EF76E79
:08098000000181EF04F0FFFF0C
:020000040020DA
:08000000FFFFFFFFFFFFFFFF00
:020000040030CA
:0E000000FF220F0EFF0181FF0FC00FE00F4027
:00000001FF
