:020000040000FA
:060000008EEF00F012007B
:020006000000F8
:08000800060EF66E000EF76E05
:10001000000EF86E04010900F550066F0900F55056
:10002000076F03E1066701D03DD00900F550016F6D
:100030000900F550026F0900F550036F090009002F
:10004000F550E96E0900F550EA6E09000900090053
:10005000F550046F0900F550056F09000900F6CF4F
:1000600008F4F7CF09F4F8CF0AF401C4F6FF02C48C
:10007000F7FF03C4F8FF0401045302E1055307E04E
:100080000900F550EE6E0407F8E20507F9D708C439
:10009000F6FF09C4F7FF0AC4F8FF04010607000EC3
:0600A000075BBFD7120050
:0A00A600D9CFE6FFDACFE6FFE1CF85
:1000B000D9FFE2CFDAFFE652E652DE6ADD6A936AE2
:1000C000816ADE6ADD6ADECF02F0DDCF03F0D89010
:1000D000035004E6100E025C000E035807E2DF50E6
:1000E000816EDF2A010EEFE3DB2AEDD7E552E55200
:0C00F000E552E5CFDAFFE7CFD9FF1200A0
:0400FC00000EF36E91
:1001000000EE00F0060E01D81200EA6002D0EE6A9E
:0C011000FCD7F350E9601200EE6AFCD747
:04011C0013EE81F06D
:1001200023EE81F0F86A019C04EC00F09CEC00F0F6
:0801300053EC00F0FBD71200B4
:020138001200B3
:020000040030CA
:0100010022DC
:010003000EEE
:010006008178
:00000001FF
