:020000040000FA
:060000008DEF02F012007A
:020006000000F8
:08000800D9CFE6FFE1CFD9FFDB
:100010000F0E831695169594959295908C948C92CC
:100020008C90CFEC00F0300EE66E9AEC01F0E552C9
:10003000050EE66E46EC02F0E552300EE66E9AECE6
:1000400001F0E552010EE66E46EC02F0E552320E8A
:10005000E66E9AEC01F0E5526DEC02F00009FCE16D
:100060006DEC02F00009FCE1FE0EDBCFE6FF9AEC3E
:1000700001F0E5526DEC02F00009FCE1080EE66EBD
:100080009AEC01F0E5526DEC02F00009FCE10F0E74
:10009000E66E9AEC01F0E5526DEC02F00009FCE12D
:1000A000010EE66E9AEC01F0E5526DEC02F00009EB
:1000B000FCE1040EE66E9AEC01F0E5526DEC02F004
:1000C0000009FCE1800EE66EFFEC00F0E552E5521F
:0600D000E7CFD9FF12008A
:0A00D600060EF66E000EF76E000E27
:1000E000F86E00010900F5508F6F0900F550906F10
:1000F00003E18F6701D03DD00900F5508A6F0900F8
:10010000F5508B6F0900F5508C6F09000900F55010
:10011000E96E0900F550EA6E090009000900F55082
:100120008D6F0900F5508E6F09000900F6CF91F030
:10013000F7CF92F0F8CF93F08AC0F6FF8BC0F7FFAD
:100140008CC0F8FF00018D5302E18E5307E00900D7
:10015000F550EE6E8D07F8E28E07F9D791C0F6FFE5
:1001600092C0F7FF93C0F8FF00018F07000E905B6D
:04017000BFD71200E3
:0C0174000000000000000000000000007F
:10018000000000000000000000000000000000006F
:100190001200050EE66E5DEC02F0E55212000F0E45
:1001A000E66E5DEC02F0E5521200F9DF6DEC02F054
:1001B0000009FCE1280EE66E04EC00F0E552EFDFEA
:1001C0006DEC02F00009FCE1E66AFFEC00F0E5529C
:1001D000CFEF00F0000029EC02F0E7DFE0DF6DEC8C
:1001E00002F0000901E0FBD7820EE66E000EE66E1B
:0E01F000C0EC01F0E552E552D2DFFFD712005D
:0201FE00D9CF57
:10020000E6FFE1CFD9FF0F0E95168316FE0EDB50E9
:100210008009F00B83128C948C92BAEC00F08C80E5
:10022000BAEC00F08C900F0E8316FE0EDB38F00B4C
:10023000F00B8312BAEC00F08C80BAEC00F08C90DA
:0C024000F00E9512E552E7CFD9FF120036
:04024C00D9CFE6FF21
:10025000E1CFD9FF0F0E95168316FE0EDB50400935
:10026000F00B83128C948C92BAEC00F08C80BAEC78
:1002700000F08C900F0E8316FE0EDB38F00BF00BA7
:100280008312BAEC00F08C80BAEC00F08C90F00E87
:0A0290009512E552E7CFD9FF1200E6
:06029A00D9CFE6FFE1CF21
:1002A000D9FFFD0EDBCFF6FFFE0EDBCFF7FF080018
:1002B000F55016E06DEC02F00009FCE1FD0EDBCF1D
:1002C000F6FFFE0EDBCFF7FF0800F550E66E74EC8C
:1002D00001F0E552FD0EDB2AFE0EE3E3DB2AE1D757
:0802E000E552E7CFD9FF12003F
:0802E800D9CFE6FFE1CFD9FFF9
:1002F0000F0E95168316FE0EDB50F00B83128C82C8
:100300008C94BAEC00F08C80BAEC00F08C900F0E5C
:100310008316FE0EDB38F00BF00B8312BAEC00F004
:100320008C80BAEC00F08C90F00E9512E552E7CF7D
:04033000D9FF1200DF
:0C033400D9CFE6FFE1CFD9FF0F0E9516E0
:100340008316FE0EDB50F00B83128C948C92BAEC69
:1003500000F08C80BAEC00F08C900F0E8316FE0E2D
:10036000DB38F00BF00B8312BAEC00F08C80BAECA7
:1003700000F08C90F00E9512E552E7CFD9FF1200F5
:10038000D9CFE6FFE1CFD9FFFD0EDBCFE9FFFE0EAF
:10039000DBCFEAFFEF5015E06DEC02F00009FCE165
:1003A000FD0EDBCFE9FFFE0EDBCFEAFFEF50E66E7E
:1003B00074EC01F0E552FD0EDB2AFE0EE5E3DB2ACC
:0A03C000E3D7E552E7CFD9FF1200A2
:0603CA00D9CFE6FFE1CFF0
:1003D000D9FFE6528C848C82BAEC00F08C80BAECA7
:1003E00000F0F00E8314DF6E8C90BAEC00F08C807D
:1003F000BAEC00F083380F0B0F0BDF128C908C924D
:0E0400008C94DF50E552E552E7CFD9FF120091
:02040E00D9CF44
:10041000E6FFE1CFD9FFE6528C848C92BAEC00F073
:100420008C80BAEC00F0F00E8314DF6E8C90BAEC86
:1004300000F08C80BAEC00F083380F0B0F0BDF124A
:100440008C908C947F0EDF14E552E552E7CFD9FFF4
:02045000120098
:0E045200540E826F610E836F6B0E846F650E09
:10046000856F200E866F320E876F200E886F000E0C
:10047000896F070E806441EF02F03FEF02F0FF0E3C
:0C048000120004EE82F08051EB501200DC
:04048C00FF0EE3502C
:10049000036EEF0E01D0F30EE76EE72E4DEF02F084
:1004A0000C0E026EE76AE72E53EF02F0022E52EFB7
:0A04B00002F0032E4BEF02F01200E1
:0604BA00FF0EE350036E8B
:1004C000480E01D04C0EE76EE72EFED7E76AE72E06
:0A04D000FED7032EF7D7000012003C
:0604DA008C848C92BAEC48
:1004E00000F08C80BAEC00F08C90BAEC00F08C80BC
:0A04F000BAEC00F08C908C94000C24
:0604FA00000EF36E00EE9F
:1005000000F0060E01D81200EA6002D0EE6AFCD7B5
:0A051000F350E9601200EE6AFCD718
:06051A0015EE00F025EED5
:1005200000F0F86A019C6BEC00F09BEC02F0EAEC46
:0605300000F0FBD71200F1
:020536001200B1
:020000040030CA
:0100010021DD
:010003000EEE
:010006008178
:00000001FF
