:020000040000FA
:06000000B4EF02F0120053
:0A00060001008605000093000000D1
:0400100002000000EA
:0C001400D9CFE6FFE1CFD9FF0F0E831615
:1000200095169594959295908C948C928C908AECE0
:1000300000F0300EE66EC1EC01F0E552050EE66E02
:100040006DEC02F0E552300EE66EC1EC01F0E552C7
:10005000010EE66E6DEC02F0E552320EE66EC1EC7A
:1000600001F0E55294EC02F00009FCE194EC02F09E
:100070000009FCE1FE0EDBCFE6FFC1EC01F0E5522A
:1000800094EC02F00009FCE1080EE66EC1EC01F010
:10009000E55294EC02F00009FCE10F0EE66EC1ECB3
:1000A00001F0E55294EC02F00009FCE1010EE66E6D
:1000B000C1EC01F0E55294EC02F00009FCE1040E01
:1000C000E66EC1EC01F0E55294EC02F00009FCE1AF
:1000D000800EE66E26EC01F0E552E552E7CFD9FF3F
:0200E00012000C
:0E00E200000000000000000000000000000010
:1000F0000000000000000000000000000000000000
:100100000000000000001200050EE66E84EC02F014
:10011000E55212000F0EE66E84EC02F0E55212007A
:10012000F9DF94EC02F00009FCE1280EE66E0AEC1F
:1001300000F0E552EFDF94EC02F00009FCE1E66A22
:1001400026EC01F0E5528AEF00F050EC02F00001DD
:10015000936B946B060ED8809355000E945511E363
:1001600060EC02F0E66E8A0E00019325E96E000E47
:100170009421EA6EE552E750EF6E932B000E942324
:10018000E9D7CEDFC7DF94EC02F00009FCE1400EB6
:10019000E66E26EC01F0E55294EC02F00009FCE179
:0E01A0008A0EE66E000EE66EE7EC01F0FFD769
:0201AE00060E3B
:1001B000F66E000EF76E000EF86E00010900F550A5
:1001C000856F0900F550866F03E1856701D03DD04A
:1001D0000900F550806F0900F550816F0900F55056
:1001E000826F09000900F550E96E0900F550EA6ECA
:1001F000090009000900F550836F0900F550846F6C
:1002000009000900F6CF87F0F7CF88F0F8CF89F022
:1002100080C0F6FF81C0F7FF82C0F8FF0001835362
:1002200002E1845307E00900F550EE6E8307F8E21F
:100230008407F9D787C0F6FF88C0F7FF89C0F8FFA9
:0C02400000018507000E865BBFD712008E
:04024C00D9CFE6FF21
:10025000E1CFD9FF0F0E95168316FE0EDB508009F5
:10026000F00B83128C948C9271EC00F08C8071EC0A
:1002700000F08C900F0E8316FE0EDB38F00BF00BA7
:10028000831271EC00F08C8071EC00F08C90F00E19
:0A0290009512E552E7CFD9FF1200E6
:06029A00D9CFE6FFE1CF21
:1002A000D9FF0F0E95168316FE0EDB504009F00B9A
:1002B00083128C948C9271EC00F08C8071EC00F0C5
:1002C0008C900F0E8316FE0EDB38F00BF00B8312B2
:1002D00071EC00F08C8071EC00F08C90F00E9512B7
:0802E000E552E7CFD9FF12003F
:0802E800D9CFE6FFE1CFD9FFF9
:1002F000FD0EDBCFF6FFFE0EDBCFF7FF0800F5505B
:1003000016E094EC02F00009FCE1FD0EDBCFF6FFF5
:10031000FE0EDBCFF7FF0800F550E66E9BEC01F018
:10032000E552FD0EDB2AFE0EE3E3DB2AE1D7E552C0
:06033000E7CFD9FF120027
:0A033600D9CFE6FFE1CFD9FF0F0E8B
:1003400095168316FE0EDB50F00B83128C828C9474
:1003500071EC00F08C8071EC00F08C900F0E831625
:10036000FE0EDB38F00BF00B831271EC00F08C808A
:1003700071EC00F08C90F00E9512E552E7CFD9FFAA
:02038000120069
:0E038200D9CFE6FFE1CFD9FF0F0E95168316F7
:10039000FE0EDB50F00B83128C948C9271EC00F00B
:1003A0008C8071EC00F08C900F0E8316FE0EDB3803
:1003B000F00BF00B831271EC00F08C8071EC00F00C
:0E03C0008C90F00E9512E552E7CFD9FF120097
:0203CE00D9CF85
:1003D000E6FFE1CFD9FFFD0EDBCFE9FFFE0EDBCF5D
:1003E000EAFFEF5015E094EC02F00009FCE1FD0E8D
:1003F000DBCFE9FFFE0EDBCFEAFFEF50E66E9BECB2
:1004000001F0E552FD0EDB2AFE0EE5E3DB2AE3D721
:08041000E552E7CFD9FF12000D
:08041800D9CFE6FFE1CFD9FFC7
:10042000E6528C848C8271EC00F08C8071EC00F0D0
:10043000F00E8314DF6E8C9071EC00F08C8071EC08
:1004400000F083380F0B0F0BDF128C908C928C9482
:0C045000DF50E552E552E7CFD9FF120063
:04045C00D9CFE6FF0F
:10046000E1CFD9FFE6528C848C9271EC00F08C8045
:1004700071EC00F0F00E8314DF6E8C9071EC00F0E4
:100480008C8071EC00F083380F0B0F0BDF128C9017
:100490008C947F0EDF14E552E552E7CFD9FF1200AE
:1004A0003D0E806F3D0E816F3D0E826F3D0E836F5E
:1004B0003D0E846F3D0E856F3D0E866F000E876F7B
:1004C000070E936468EF02F066EF02F0FF0E120071
:0A04D00004EE80F09351EB5012008F
:0604DA00FF0EE350036E6B
:1004E000EF0E01D0F30EE76EE72E74EF02F00C0E64
:1004F000026EE76AE72E7AEF02F0022E79EF02F041
:08050000032E72EF02F012005D
:08050800FF0EE350036E480EE4
:1005100001D04C0EE76EE72EFED7E76AE72EFED736
:08052000032EF7D700001200C2
:080528008C848C9271EC00F050
:100530008C8071EC00F08C9071EC00F08C8071EC90
:0805400000F08C908C94000C7B
:08054800000EF36E00EE00F05E
:10055000060E01D81200EA6002D0EE6AFCD7F35012
:08056000E9601200EE6AFCD70D
:0805680015EE00F025EE00F095
:10057000F86A019CD7EC00F0C2EC02F0A5EC00F0A8
:04058000FBD7120093
:02058400120063
:02058600000073
:020000040030CA
:0100010021DD
:010003000EEE
:010006008178
:00000001FF
