:020000040000FA
:06000000DCEF02F012002B
:020006000000F8
:08000800D9CFE6FFE1CFD9FFDB
:100010000F0E83160F0E95169594959295908C94CD
:100020008C928C908AEC00F0300EE66ED4EC01F0ED
:10003000E552050EE66EA5EC02F0E552300EE66ED6
:10004000D4EC01F0E552010EE66EA5EC02F0E552AB
:10005000320EE66ED4EC01F0E55269EC02F00009D4
:1000600001E0FBD769EC02F0000901E0FBD7FE0ECE
:10007000DBCFE6FFD4EC01F0E55269EC02F00009B9
:1000800001E0FBD7080EE66ED4EC01F0E55269EC16
:1000900002F0000901E0FBD70F0EE66ED4EC01F090
:1000A000E55269EC02F0000901E0FBD7010EE66EB3
:1000B000D4EC01F0E55269EC02F0000901E0FBD755
:1000C000040EE66ED4EC01F0E55269EC02F0000992
:1000D00001E0FBD7800EE66E31EC01F0E55200D076
:0800E000E552E7CFD9FF120041
:0800E800000000000000000010
:1000F0000000000000000000000000000000000000
:10010000000000001200050EE66EBCEC02F0E552A5
:1001100000D012000F0EE66EBCEC02F0E55200D0EB
:100120001200F8DF69EC02F0000901E0FBD7280EAD
:10013000E66E04EC00F0E552EDDF69EC02F0000938
:1001400001E0FBD7E66A31EC01F0E552E3DF120093
:10015000000088EC02F00001806B816B0001070E4B
:10016000D8808055000E81551BE3820E000180254A
:10017000E96E000E00018121EA6EEFCF04F004C0A9
:10018000E6FF98EC02F0E552E7CF04F0045C02E0F1
:10019000000E01D0010E0001802B000E8123DED75E
:1001A000C0DFB8DF69EC02F0000901E0FBD7820E86
:1001B000E66E000EE66EFCEC01F0E552E552AADFB9
:0401C000FFD7120053
:0C01C400060EF66E000EF76E000EF86ED0
:1001D00000010900F5508F6F0900F550906F03E1A1
:1001E0008F6701D03DD00900F5508A6F0900F550A6
:1001F0008B6F0900F5508C6F09000900F550E96E0E
:100200000900F550EA6E090009000900F5508D6FEC
:100210000900F5508E6F09000900F6CF91F0F7CF75
:1002200092F0F8CF93F08AC0F6FF8BC0F7FF8CC036
:10023000F8FF00018D5302E18E5307E00900F550ED
:10024000EE6E8D07F8E28E07F9D791C0F6FF92C0E7
:10025000F7FF93C0F8FF00018F07000E905BBFD738
:0202600012008A
:0E026200D9CFE6FFE1CFD9FF0F0E95160F0E94
:100270008316FE0EDB508009F00B83128C948C9257
:1002800074EC00F08C8074EC00F08C900F0E8316F0
:10029000FE0EDB38F00BF00B831274EC00F08C8058
:1002A00074EC00F08C90F00E951200D0E552E7CF80
:0402B000D9FF120060
:0C02B400D9CFE6FFE1CFD9FF0F0E951661
:1002C0000F0E8316FE0EDB504009F00B83128C9448
:1002D0008C9274EC00F08C8074EC00F08C900F0E1B
:1002E0008316FE0EDB38F00BF00B831274EC00F07B
:1002F0008C8074EC00F08C90F00E951200D0E552DA
:06030000E7CFD9FF120057
:0A030600D9CFE6FFE1CFD9FFFD0ECD
:10031000DBCFF6FFFE0EDBCFF7FF0800F55017E04E
:1003200069EC02F0000901E0FBD7FD0EDBCFF6FF20
:10033000FE0EDBCFF7FF0800F550E66EACEC01F0E7
:10034000E552FD0EDB2AFE0E01E3DB2AE0D700D0EA
:08035000E552E7CFD9FF1200CE
:08035800D9CFE6FFE1CFD9FF88
:100360000F0E95160F0E8316FE0EDB50F00B831248
:100370008C828C9474EC00F08C8074EC00F08C9087
:100380000F0E8316FE0EDB38F00BF00B831274ECAD
:1003900000F08C8074EC00F08C90F00E951200D080
:0803A000E552E7CFD9FF12007E
:0803A800D9CFE6FFE1CFD9FF38
:1003B0000F0E95160F0E8316FE0EDB50F00B8312F8
:1003C0008C948C9274EC00F08C8074EC00F08C9027
:1003D0000F0E8316FE0EDB38F00BF00B831274EC5D
:1003E00000F08C8074EC00F08C90F00E951200D030
:0803F000E552E7CFD9FF12002E
:0803F800D9CFE6FFE1CFD9FFE8
:10040000FD0EDBCFE9FFFE0EDBCFEAFFEF5016E07B
:1004100069EC02F0000901E0FBD7FD0EDBCFE9FF3C
:10042000FE0EDBCFEAFFEF50E66EACEC01F0E552DA
:10043000FD0EDB2AFE0E01E3DB2AE2D700D0E552F7
:06044000E7CFD9FF120016
:0A044600D9CFE6FFE1CFD9FFE6525F
:100450008C848C8274EC00F08C8074EC00F0F00ED4
:100460008314DF6E8C9074EC00F08C8074EC00F0E0
:1004700083380F0B0F0BDF128C908C928C94DF5013
:0C04800000D0E552E552E7CFD9FF120092
:04048C00D9CFE6FFDF
:10049000E1CFD9FFE6528C848C9274EC00F08C8012
:1004A00074EC00F0F00E8314DF6E8C9074EC00F0AE
:1004B0008C8074EC00F083380F0B0F0BDF128C90E4
:1004C0008C947F0EDF1400D0E552E552E7CFD9FFC0
:0204D000120018
:0E04D2008C848C9274EC00F08C8074EC00F042
:1004E00083AE0BD08C9074EC00F08C8074EC00F038
:1004F0008C908C94000E0BD00AD08C9074EC00F091
:100500008C8074EC00F08C908C94000E00D0120063
:10051000540E826F610E836F6B0E846F650E856F54
:10052000200E866F320E876F200E886F000E896F47
:10053000070E8064A0EF02F09EEF02F0FF0E1200A3
:0A05400004EE82F08051EB5012002F
:06054A00FF0EE350036EFA
:10055000EF0E01D0F30EE76EE72EACEF02F00C0EBB
:10056000026EE76AE72EB2EF02F0022EB1EF02F060
:08057000032EAAEF02F01200B5
:08057800FF0EE350036E480E74
:1005800001D04C0EE76EE72EFED7E76AE72EFED7C6
:08059000032EF7D70000120052
:08059800000EF36E00EE00F00E
:1005A000060E01D81200EA6002D0EE6AFCD7F350C2
:0805B000E9601200EE6AFCD7BD
:0805B80015EE00F025EE00F045
:1005C000F86A019CE2EC00F0EAEC02F0A8EC00F022
:0405D000FBD7120043
:0205D400120013
:020000040030CA
:0100010021DD
:010003000EEE
:010006008178
:00000001FF
