:020000040000FA
:1000000076EF00F0D9CFE5FFE1CFD9FF00C0E5FFE3
:1000100001C0E5FF020EDBCF00F00F0E83160F0EBE
:1000200095169594959295908C948C928C9048EC22
:1000300003F0300EE56EF4EC01F0E652050E5AECDA
:1000400001F0300EE56EF4EC01F0E652010E5AECD0
:1000500001F0320EE56EF4EC01F0E652E5EC02F050
:10006000016E0150FBE1E5EC02F0016E0150FBE195
:100070000050E56EF4EC01F0E652E5EC02F0006EA3
:100080000050FBE1080EE56EF4EC01F0E652E5EC01
:1000900002F0006E0050FBE10F0EE56EF4EC01F093
:1000A000E652E5EC02F0006E0050FBE1010EE56E59
:1000B000F4EC01F0E652E5EC02F0006E0050FBE1DA
:1000C000040EE56EF4EC01F0E652E5EC02F0006E91
:1000D0000050FBE1800EE56EBDEC01F0E652E4CF8E
:1000E00001F0E4CF00F0E4CFD9FF120011EEFFF0F1
:1000F00021EEFFF0F86AA68EA69CE9680E0EEA6E65
:100100000068ED6A0050FDE1D80EF66E060EF76E3F
:10011000000EF86E0900F5CF05F00900F5CF06F0E6
:1001200034D00900F5CF00F00900F5CF01F0090047
:10013000F5CF02F009000900F5CFE9FF0900F5CF7E
:10014000EAFF090009000900F5CF03F00900F5CF27
:1001500004F009000900F6CF07F0F7CF08F0F8CF58
:1001600009F000C0F6FF01C0F7FF02C0F8FF03D09E
:100170000900F5CFEEFF0306FBE20406F9E207C033
:10018000F6FF08C0F7FF09C0F8FF0506CAE2060639
:10019000C8E208EC03F0FFD7D9CFE5FFE1CFD9FFE4
:1001A00000C0E5FF01C0E5FF02C0E5FF03C0E5FFB9
:1001B000020EDBCF00F0030EDBCF01F0040EDBCF2D
:1001C00002F000C0E9FF01C0F3FF025037EC03F07A
:1001D000036E035017E0E5EC02F0036E0350FBE101
:1001E00000C0E9FF01C0F3FF025037EC03F0036EDB
:1001F0000350E56E29EC02F0E652002AE2E3014AE0
:10020000022ADFD7E4CF03F0E4CF02F0E4CF01F01D
:10021000E4CF00F0E4CFD9FF1200D9CFE5FFE1CF62
:10022000D9FF00C0E5FF01C0E5FF02C0E5FF03C044
:10023000E5FF020EDBCF00F0030EDBCF01F0040E72
:10024000DBCF02F000C0E9FF01C0F3FF025037EC42
:1002500003F0036E035017E0E5EC02F0036E035069
:10026000FBE100C0E9FF01C0F3FF025037EC03F0EF
:10027000036E0350E56E29EC02F0E652002AE2E339
:10028000014A022ADFD7E4CF03F0E4CF02F0E4CF43
:1002900001F0E4CF00F0E4CFD9FF1200E80600003F
:1002A000E85007E000D000D000D000D00000E82ED9
:1002B000FAD71200E806E56E090E73EC01F0990E0C
:1002C0004EEC01F0E4500EE000D0E56E090E73EC48
:1002D00001F0990E4EEC01F000D000D00000E45087
:1002E000E82EF3D71200E806E56E990E4EEC01F009
:1002F000E4500BE000D0E56E990E4EEC01F000D01A
:1003000000D00000E450E82EF6D71200D9CFE5FF68
:10031000E1CFD9FF00C0E5FF01C0E5FF020EDBCF52
:1003200000F00F0E95160F0E8316400E0010016E92
:10033000F00E0116015083128C948C9225EC03F080
:100340008C8025EC03F08C900F0E83160038F00B98
:10035000016EF00E0114006E0050831225EC03F0C4
:100360008C8025EC03F08C90F00E9512E4CF01F018
:10037000E4CF00F0E4CFD9FF1200D9CFE5FFE1CF01
:10038000D9FF00C0E5FF01C0E5FF020EDBCF00F0A2
:100390000F0E95160F0E8316800E0010016EF00ED4
:1003A0000116015083128C948C9225EC03F08C8002
:1003B00025EC03F08C900F0E83160038F00B016EC5
:1003C000F00E0114006E0050831225EC03F08C80B7
:1003D00025EC03F08C90F00E9512E4CF01F0E4CF01
:1003E00000F0E4CFD9FF1200D9CFE5FFE1CFD9FF6C
:1003F00000C0E5FF01C0E5FF020EDBCF00F00F0EED
:1004000095160F0E8316F00E0014016E0150831224
:100410008C948C9225EC03F08C8025EC03F08C906E
:100420000F0E83160038F00B016EF00E0114006EF3
:100430000050831225EC03F08C8025EC03F08C90A7
:10044000F00E9512E4CF01F0E4CF00F0E4CFD9FF35
:100450001200D9CFE5FFE1CFD9FF00C0E5FF01C011
:10046000E5FF020EDBCF00F00F0E95160F0E831680
:10047000F00E0014016E015083128C828C9425ECD6
:1004800003F08C8025EC03F08C900F0E831600385F
:10049000F00B016EF00E0114006E0050831225EC7B
:1004A00003F08C8025EC03F08C90F00E9512E4CFD5
:1004B00001F0E4CF00F0E4CFD9FF1200D9CFE5FF7F
:1004C000E1CFD9FF00C0E5FF280EE56E02EC00F099
:1004D000E652E5EC02F0006E0050FBE1280EE56EFE
:1004E000F4EC01F0E652E5EC02F0006E0050FBE1A6
:1004F0000F0EE56EF4EC01F0E652E5EC02F0006E52
:100500000050FBE1060EE56EF4EC01F0E652E5EC7E
:1005100002F0006E0050FBE1E4CF00F0E4CFD9FF21
:100520001200D9CFE5FFE1CFD9FF00C0E5FF01C040
:10053000E5FF8C848C9225EC03F08C8025EC03F095
:10054000F00E8314006E8C9025EC03F08C8025EC6B
:1005500003F083380F0B016E0F0E011601500012CD
:100560008C908C94009E0050E4CF01F0E4CF00F01A
:10057000E4CFD9FF1200D9CFE5FFE1CFD9FF00C00A
:10058000E5FF01C0E5FF8C848C8225EC03F08C80B4
:1005900025EC03F0F00E8314006E8C9025EC03F034
:1005A0008C8025EC03F083380F0B016E0F0E0116C3
:1005B000015000128C908C928C940050E4CF01F08A
:1005C000E4CF00F0E4CFD9FF1200D9CFE5FFE1CFAF
:1005D000D9FF8C848C9225EC03F08C8025EC03F001
:1005E00083AE0AD08C9025EC03F08C8025EC03F0D0
:1005F0008C908C94010E09D08C9025EC03F08C80AB
:1006000025EC03F08C908C94E86AE4CFD9FF1200BB
:100610005EEC02F0E5EC02F0006E0050FBE1430EF0
:10062000E56EBDEC01F0E652000E026E060E016EA4
:10063000620E006E0250E56E0150E56E0050E56EF0
:10064000CCEC00F0030EE1261200D9CFE5FFE1CF9C
:10065000D9FF020EE56E4EEC01F0E652E4CFD9FF71
:10066000120048656C6C6F20576F726C6400E8AEC6
:1006700004D0F3CFEAFFEE501200E8BC75EF03F0B0
:10068000E9CFF6FFF3CFF7FFF86E0900F55012003F
:10069000D9CFE5FFE1CFD9FF0F0EE56E73EC01F086
:1006A000E652E4CFD9FF1200D9CFE5FFE1CFD9FF61
:1006B000050EE56E73EC01F0E652E4CFD9FF1200AF
:1006C000F2CFF6FFF29EA69EA69CE9CFA9FFA680D8
:1006D000A850F6BEF28E12000100E6060000880067
:0E06E0000000030000000000000060EF03F0C7
:020000040030CA
:0100010022DC
:010003000EEE
:010006008178
:00000001FF
